:020000040800F2
:100000000000032091400008E1400008E1400008A2
:10001000E1400008E1400008E14000080000000065
:10002000000000000000000000000000E1400008A7
:10003000E140000800000000E1400008993D000890
:10004000E1400008E1400008E1400008E14000080C
:10005000E1400008E1400008E1400008E1400008FC
:10006000E1400008E1400008E1400008E1400008EC
:10007000E1400008E1400008E1400008E1400008DC
:10008000E1400008E1400008E1400008E1400008CC
:10009000E1400008E1400008E1400008E1400008BC
:1000A000E1400008E1400008E1400008E1400008AC
:1000B000E1400008E1400008E1400008E14000089C
:1000C000E1400008E1400008E1400008E14000088C
:1000D000E1400008E1400008E1400008E14000087C
:1000E000E1400008E1400008E1400008E14000086C
:1000F000E1400008E1400008E1400008E14000085C
:10010000E1400008E1400008E1400008E14000084B
:10011000E1400008E1400008E1400008E14000083B
:10012000E1400008E1400008E1400008E14000082B
:10013000E1400008E1400008E1400008E14000081B
:10014000E1400008E1400008E1400008E14000080B
:10015000E1400008E1400008E1400008E1400008FB
:10016000E1400008E1400008E1400008E1400008EB
:10017000E1400008A53D0008E14000080000000043
:10018000E1400008E1400008E1400008E1400008CB
:10019000E1400008E1400008E1400008E1400008BB
:0C01A000E1400008E1400008E1400008D8
:1001AC0010B5054C237833B9044B13B10448AFF3A5
:1001BC0000800123237010BD1C01002000000000F2
:1001CC00DC42000808B5034B1BB103490348AFF3ED
:1001DC00008008BD0000000020010020DC42000867
:1001EC0053B94AB9002908BF00281CBF4FF0FF3192
:1001FC004FF0FF3000F072B9ADF1080C6DE904CE90
:10020C0000F006F8DDF804E0DDE9022304B07047E5
:10021C002DE9F047089E04468846002B4BD18A42B4
:10022C00154667D9B2FA82F24AB1C2F1200701FA37
:10023C0002F320FA07F7954047EA030894404FEA87
:10024C00154E230CB8FBFEF71FFA85FC0EFB178826
:10025C0043EA084307FB0CF1994209D9EB1807F163
:10026C00FF3080F01B81994240F21881023F2B44F1
:10027C005B1AA4B2B3FBFEF00EFB103344EA03444A
:10028C0000FB0CFCA44509D92C1900F1FF3380F0BC
:10029C000781A44540F2048102382C4440EA07400F
:1002AC00A4EB0C0400271EB1D4400023C6E9004384
:1002BC003946BDE8F0878B4209D9002E00F0EB805F
:1002CC000027C6E9000138463946BDE8F087B3FA85
:1002DC0083F7002F47D18B4202D3824200F2FA807F
:1002EC00841A61EB030301209846002EE0D0C6E986
:1002FC000048DDE702B9FFDEB2FA82F2002A40F0D4
:10030C008F80491B4FEA154E1FFA85F80127B1FB68
:10031C00FEFC230C0EFB1C1143EA014308FB0CF101
:10032C00994207D9EB180CF1FF3002D2994200F236
:10033C00CD808446591AA3B2B1FBFEF00EFB10140B
:10034C0043EA044408FB00F8A04507D92C1900F136
:10035C00FF3302D2A04500F2B6801846A4EB080485
:10036C0040EA0C409FE7C7F1200CBB4022FA0CFE80
:10037C004EEA030E01FA07F420FA0CF521FA0CF3FD
:10038C004FEA1E482543B3FBF8F92C0C08FB193334
:10039C001FFA8EFA44EA034309FB0AF49C4202FA60
:1003AC0007F200FA07F10BD91EEB030309F1FF303A
:1003BC0080F087809C4240F28480A9F1020973444A
:1003CC001B1BADB2B3FBF8F008FB103345EA03443A
:1003DC0000FB0AFAA24508D91EEB040400F1FF3316
:1003EC006BD2A24569D90238744440EA0940A0FB9B
:1003FC000289A4EB0A044C45C2464B4654D351D057
:10040C00002E69D0B1EB0A0564EB030404FA0CFC72
:10041C00FD40FC404CEA0505C6E90054002747E7BF
:10042C00C2F1200320FA03F7954001FA02F021FAF9
:10043C0003F34FEA154E3843010CB3FBFEF71FFADA
:10044C0085F80EFB173341EA034107FB08F38B4297
:10045C0004FA02F407D9691807F1FF3C2FD28B423A
:10046C002DD9023F2944CB1A81B2B3FBFEF00EFB0F
:10047C00103341EA034100FB08F38B4207D969189A
:10048C0000F1FF3C17D28B4215D902382944C91A06
:10049C0040EA07473BE73746304609E70746E7E6B9
:1004AC001846FBE64145ABD2B8EB020A69EB0E02EB
:1004BC0001381346A4E76046E9E7184695E7674616
:1004CC00D1E781467CE702382C4447E7ACF1020CBB
:1004DC002B442FE7384608E73746E9E6704700BF5C
:1004EC0008B5072002F0ECFA002211466FF00B0061
:1004FC0002F0F8FA002211466FF00A0002F0F2FA4C
:10050C00002211466FF0090002F0ECFA00221146AD
:10051C006FF0040002F0E6FA002211466FF00300BF
:10052C0002F0E0FA002211466FF0010002F0DAFA54
:10053C00002211464FF0FF3002F0D4FA08BD000043
:10054C0010B409490C6924F440740C610C6944F42E
:10055C0040740C610C6944F001040C61026043604E
:10056C005DF8044B704700BF003C0240074B1A6912
:10057C0022F440721A611A6942F400721A611A6903
:10058C0042F001021A610160704700BF003C02405A
:10059C00074B1A6922F440721A611A6942F480728C
:1005AC001A611A6942F001021A610180704700BF9A
:1005BC00003C0240064B1A6922F440721A611A6917
:1005CC001A611A6942F001021A610170704700BF8A
:1005DC00003C0240274BDB6813F0100F07D0264A73
:1005EC00D36943F01003D361224B1022DA60214B04
:1005FC00DB6813F0200F07D01F4AD36943F00803C0
:10060C00D3611C4B2022DA601A4BDB6813F0400FCD
:10061C0007D0194AD36943F00403D361154B402228
:10062C00DA60144BDB6813F0800F07D0124AD369E1
:10063C0043F00203D3610F4B8022DA600D4BDB6871
:10064C0013F4807F08D00C4AD36943F00103D361C3
:10065C00084B4FF48072DA60064BDB6813F0020F24
:10066C0007D0054AD36943F02003D361014B022222
:10067C00DA607047003C024044020020094B1B69C1
:10068C00002B01DB00207047064B074A5A6002F131
:10069C0088325A601B69002B01DB00207047012057
:1006AC00704700BF003C024023016745034A1369B1
:1006BC0043F0004313610020704700BF003C024030
:1006CC0038B50446154B0022DA6101F0F1FC054601
:1006DC00134BDB6813F4803F0AD0B4F1FF3FF7D023
:1006EC00CCB101F0E5FC401BA042F1D903200DE098
:1006FC000B4BDB6813F0010F02D0094B0122DA60BF
:10070C00074BDB6813F4F97F01D1002038BDFFF7EC
:10071C0061FF0120FAE70320F8E700BF4402002044
:10072C00003C0240F8B51D4C247E012C34D01F46F1
:10073C0016460D460446194B01221A764CF25030DF
:10074C00FFF7BEFF014698B9BCB1012C1AD0022CA0
:10075C001DD032463B462846FFF7F2FE4CF2503095
:10076C00FFF7AEFF01460E4A136923F00103136134
:10077C000A4B00221A760846F8BDF1B22846FFF75C
:10078C0019FFEBE7B1B22846FFF702FFE6E7314667
:10079C002846FFF7EBFEE1E70221ECE744020020DC
:1007AC00003C024012230B80004870471C000020C4
:1007BC0004230B80004870473000002008B50A461F
:1007CC0028B10549054802F05AFC034808BD024906
:1007DC00024802F054FCF8E76402002024430008AD
:1007EC0010B5044C0A462146034802F048FC20464A
:1007FC0010BD00BF640200201043000808B50A4673
:10080C0028B10549054802F03AFC034808BD0249E5
:10081C00024802F034FCF8E764020020444300086C
:10082C0008B50A4628B10549054802F028FC0348DA
:10083C0008BD0249024802F022FCF8E764020020DD
:10084C00F442000808B50A4628B10549054802F0EB
:10085C0016FC034808BD0249024802F010FCF8E7F8
:10086C006402002000430008114A136923F440730A
:10087C00136103290ED0012913D00D4A136943F4D7
:10088C00004313610A4A136943EA002040F48030A4
:10089C0010617047136943F4004343F00403136180
:1008AC00F0E7034A136943F004031361EAE700BF5E
:1008BC00003C024010B449B1012924D0022902D0D5
:1008CC004FF4407403E04FF4007400E000240B2854
:1008DC0000D904300D4B196921F4407119611A6962
:1008EC0022431A611A6922F0F8021A611A6942EA63
:1008FC00C00040F0020018611A6942F480321A619B
:10090C005DF8044B70474FF48074E0E7003C024004
:10091C00164B1B6813F4007F10D0144B1A6822F48A
:10092C0000721A601A6842F400621A601A6822F4A3
:10093C0000621A601A6842F400721A600B4B1B6852
:10094C0013F4806F10D0094B1A6822F480621A607D
:10095C001A6842F480521A601A6822F480521A60A3
:10096C001A6842F480621A60704700BF003C024073
:10097C00F8B5234B1B7E012B40D00E460446204B72
:10098C0001221A764CF25030FFF79AFE074680BBD4
:10099C004FF0FF3333602368012B16D0A568E36852
:1009AC00A2681344AB4222D9217C2846FFF782FF70
:1009BC004CF25030FFF784FE124A136923F0FA030D
:1009CC001361074690B90135E9E76168207CFFF7B0
:1009DC004BFF4CF25030FFF773FE0746094A136980
:1009EC0023F4004323F00403136100E03560FFF7A8
:1009FC008FFF034B00221A763846F8BD0227FBE71F
:100A0C0044020020003C024000230F2B00F2E38044
:100A1C00F0B482B039E0092200E00022B2403A433F
:100A2C0002346D4E46F824206C4A1468EA4302EAFC
:100A3C0004064F6817F4803F01D045EA0406674C62
:100A4C002660646802EA04064F6817F4003F01D080
:100A5C0045EA0406614C6660A46802EA04064F6825
:100A6C0017F4801F01D045EA04065C4CA660E468CC
:100A7C0022404E6816F4001F01D045EA0402574C80
:100A8C00E26001330F2B00F2A38001229A400C6824
:100A9C0004EA0205AA42F4D14C68022C01D0122CB3
:100AAC0010D1DE08083650F826C003F00704A70062
:100ABC000F24BC402CEA040C0C69BC4044EA0C0426
:100ACC0040F8264004685F000326BE40F64306EA61
:100ADC00040C4C6804F00304BC4044EA0C040460AD
:100AEC004C6804F1FF3CBCF1010F03D9112C01D06F
:100AFC00122C10D1846806EA040CCC68BC4044EA81
:100B0C000C048460446824EA02024C68C4F30014A8
:100B1C009C4014434460C26816408A68BA40324311
:100B2C00C2604A6812F0805FABD0002201922C4A5E
:100B3C00546C44F480445464526C02F4804201922C
:100B4C00019A9C08A61C244A52F8267003F0030252
:100B5C0096000F22B24027EA0207224A90423FF445
:100B6C005CAF02F58062904222D002F58062904226
:100B7C0020D002F5806290421ED002F58062904235
:100B8C001CD002F5806290421AD002F5806290422D
:100B9C0018D002F58062904216D002F58062904225
:100BAC0014D002F5806290423FF435AF0A2235E74B
:100BBC00012233E7022231E703222FE704222DE73B
:100BCC0005222BE7062229E7072227E7082225E73B
:100BDC0002B0F0BC7047704700380140003C014047
:100BEC0000380240000002400369194201D1002084
:100BFC0070470120704712B9090481617047816107
:100C0C0070472DE9F04383B007460D46D0F80080BD
:100C1C00CA00521A93000344DE6C1A6DB61A1B6C90
:100C2C009E4200D91E4606F103094FEA990915E0C8
:100C3C0006F103094FEA9909EB005B1B9C003C444D
:100C4C00616C3B7C0093B3B2EAB2404601F076F89B
:100C5C00636C33446364236D33442365414608EB72
:100C6C00451303F510639B699BB24B4512D9EA00FF
:100C7C00521B93003B441A6DDB6C9A420AD24BB167
:100C8C009E1AC5EBC50293003B441B6C9E42CFD908
:100C9C001E46CDE73EB90123AB40D1F8345825EAC6
:100CAC000305C1F83458002003B0BDE8F0830028D8
:100CBC006BD0F0B58BB00446032380F8B93303F046
:100CCC0073F8206800F0FEFC254655F8107B6E4644
:100CDC000FCD0FC60FCD0FC695E8030086E80300B5
:100CEC00231D0ECB384600F0A9FC0021206800F033
:100CFC00EFFC002210E0D100891A8B002344012163
:100D0C0083F8391083F83820DA87002183F83B10F8
:100D1C0019645964D96401320E2AECD9002218E006
:100D2C00D100891A8B002344002183F8F91183F830
:100D3C00F821DA8783F8FB11C3F80012C3F8041208
:100D4C00C3F80C12236802F1400003EB80035960D6
:100D5C0001320E2AE4D9254655F8107B6E460FCD8C
:100D6C000FC60FCD0FC695E8030086E80300231DC0
:100D7C000ECB384600F0C2FC012384F8B93320684E
:100D8C0001F0A9F800200BB0F0BD0120704790F8DD
:100D9C00B833012B0ED010B50446012380F8B833BC
:100DAC00006801F08CF8206800F086FC002084F8C4
:100DBC00B80310BD0220704790F8B833012B11D046
:100DCC0010B50446012380F8B833006800F07AFCB3
:100DDC00206801F042F8206801F07DF8002084F8CA
:100DEC00B80310BD022070472DE9F0470446056892
:100DFC00284601F0ABF808B1BDE8F087064620683C
:100E0C0001F075F80028F7D0206801F070F810F0A8
:100E1C00020F04D02268536903F002035361206867
:100E2C0001F065F810F4002F75D13746206801F0F9
:100E3C005EF810F4802F40F0D280206801F057F853
:100E4C000028C0F23E81206801F051F810F4006FC8
:100E5C000AD0D5F8083813F0010F40F04181226810
:100E6C00536903F400635361206801F040F810F4F7
:100E7C00805F40F03981206801F039F810F4005F90
:100E8C0040F08281206801F032F810F0100F14D07D
:100E9C002268936923F0100393612E6A06F00F0801
:100EAC00C6F34343022B00F00382062B00F0218291
:100EBC002268936943F010039361206801F017F8DE
:100ECC0010F0080F40F02982206801F010F810F49F
:100EDC00801F40F02B82206801F009F810F4001FED
:100EEC0040F02E82206801F002F810F0804F40F0A4
:100EFC003182206800F0FBFF10F0040F3FF47CAF50
:100F0C0023685D6815F0040F40F02D822268536849
:100F1C002B43536070E7206800F0EDFF80463746A6
:100F2C0021E0F900C91B8A002244D2F800121B6987
:100F3C00C3F31203C91AC2F81012D2F80012D2F875
:100F4C0004320B44C2F8043228E019F0080F3DD1EA
:100F5C0019F0100F04D005EB47131022C3F8082B1F
:100F6C0001374FEA5808B8F1000F3FF45FAF18F0A3
:100F7C00010FF5D05FFA87FA5146206800F0CBFFDD
:100F8C00814610F0010FE0D005EB47130122C3F8A6
:100F9C00082B03F530632269012AC2D05146204642
:100FAC0002F044FF2369012BCFD1002FCDD1C7EB29
:100FBC00C70293002344D3F80C32002BC5D104F59F
:100FCC006F720121206800F0E1FFBEE7204602F0BD
:100FDC0025FF05EB47130822C3F8082BB8E7206858
:100FEC0000F091FF804637462EE0FA00D21B9300AA
:100FFC002344196C5A6C0A445A6446E019F0080FE1
:10100C0004D005EB47130822C3F8082919F0100F78
:10101C0004D005EB47131022C3F8082919F0400F30
:10102C0004D005EB47134022C3F8082919F0020F2E
:10103C0004D005EB47130222C3F8082919F0800FDE
:10104C003AD101374FEA5808B8F1000F3FF4F5AE2A
:10105C0018F0010FF5D05FFA87FA5146206800F0BE
:10106C0063FF814610F0010FC8D0012202FA07F08D
:10107C00D5F8343823EA0003C5F8343805EB4713A8
:10108C00C3F8082923699342AFD05146204602F099
:10109C00D9FE2369012BB1D1002FAFD1C7EBC70209
:1010AC0093002344DB6C002BA8D104F56F72012153
:1010BC00206800F06BFFA1E739462046FFF7A1FD41
:1010CC00BFE7D5F8043823F00103C5F804382046EF
:1010DC0002F0F2FE2268536903F000435361B2E65A
:1010EC00204602F0D1FEBAE6A94605F50068D8F80C
:1010FC00043023F00103C8F804301021206800F0FC
:10110C00A5FB07E009EB4613FF22C3F80829C3F837
:10111C00082B01366368B342F4D84FF0FF33C8F89C
:10112C001830D8F81C3043F00113C8F81C30236B6E
:10113C00EBB1D8F8843043F00B03C8F88430D8F8FE
:10114C00443043F00B03C8F84430D5F8003823F48E
:10115C00FE63C5F8003804F56F72217C206800F03E
:10116C0015FF2268536903F48053536183E6D8F862
:10117C00143043F00B03C8F81430D8F8103043F097
:10118C000B03C8F81030E0E7206800F0E3FE22689B
:10119C00D36823F47053D360206800F084FB90B9BB
:1011AC000023E3604FF4007363612268D36843F457
:1011BC001053D360204602F056FE2268536903F4A4
:1011CC00005353615EE60323E3604023636102F046
:1011DC00D7FD674B0344674A934205D82268D3680E
:1011EC0043F47053D360E5E7634B0344634A934283
:1011FC0005D82268D36843F46053D360DAE7A0F5CE
:10120C007403A3F510535E4A934205D82268D36841
:10121C0043F45053D360CDE7A0F18373A3F5E743B8
:10122C00584A934205D82268D36843F44053D3609C
:10123C00C0E7554B0344554A934205D82268D368FE
:10124C0043F43053D360B5E7514B0344514A9342B6
:10125C0005D82268D36843F42053D360AAE74E4BD9
:10126C0003444E4A934205D82268D36843F4105382
:10127C00D3609FE7A0F1B773A3F55853484A934244
:10128C0005D82268D36843F40053D36092E7454BEA
:10129C000344454A934205D82268D36843F4E0538B
:1012AC00D36087E72268D36843F4C053D36081E7E7
:1012BC0047F6F0731E423FF4FBAD36094FEAC80AFD
:1012CC00AAEB08034FEA8309A144C6F30A02D9F832
:1012DC000412284600F046FDC6F30A06D9F804327B
:1012EC003344C9F80432D9F810321E44C9F81062DC
:1012FC00DEE5082204F56F71284600F033FDC6F3D5
:10130C000A164FEAC803A3EB08018A002244D2F85C
:10131C0010321E44C2F81062CAE5204602F09DFD50
:10132C002268536903F008035361CDE5F9B22046F6
:10133C0002F0CEFD2268536903F480135361CAE5B1
:10134C00F9B2204602F0BEFD2268536903F4001383
:10135C005361C7E5204602F0C1FD2268536903F0D2
:10136C0080435361C5E5204602F0BEFDCEE500BFCB
:10137C00405327FFFF340C00401E1BFF3F420F0061
:10138C007F4F12001FD6130060B6E5FE5FE3160018
:10139C0000D3CEFE3F771B00C05BB3FEBF91210094
:1013AC001F753800E05459FEDF9C410090F8B833AB
:1013BC00012B0BD010B50446012380F8B83300681C
:1013CC0000F06DFD002084F8B80310BD02207047BA
:1013DC0070B54DB2002D22DB01F07F06C6EBC606C0
:1013EC00B40004F5FC74044401F07F012170ED0F8E
:1013FC006570A260E37005B1E180022B17D090F804
:10140C00B833012B16D00546012380F8B83321469A
:10141C00006800F068FA002085F8B80370BD01F090
:10142C007F06C6EBC606B40038340444DCE7002360
:10143C002371E4E70220F1E770B501F07F06F500B7
:10144C00A91B8C0004F5FC740119AD1BAC00044401
:10145C00C4F80422C4F80C320023C4F8103284F807
:10146C00F93184F8F8610369012B06D066B1DAB260
:10147C00006800F081FA002070BDC6EBC605AC0018
:10148C000444C4F80822F1E7DAB2006800F0A6FBC5
:10149C00F1E770B501F07F06F500A91B8C0038341C
:1014AC000119AD1BAC0004446264E36400232365A2
:1014BC00012384F8393084F838600369012B06D095
:1014CC005EB1DAB2006800F057FA002070BDC6EBCE
:1014DC00C605AC000444A264F2E7DAB2006800F07E
:1014EC007DFBF2E738B54AB2002A1DDBC1EBC10423
:1014FC00A30003F5FC73034401249C7001F07F04EA
:10150C001C70D20F5A7090F8B823012A1BD00546D4
:10151C00012280F8B8231946006800F037FC5CB152
:10152C00002085F8B80338BD01F07F04C4EBC40477
:10153C00A30038330344DFE705F56F72297C286874
:10154C0000F024FDECE70220EDE710B54AB2002ACA
:10155C001CDBC1EBC104A30003F5FC7303440024A2
:10156C009C7001F07F011970D20F5A7090F8B8235B
:10157C00012A13D00446012280F8B82319460068CA
:10158C0000F036FC002084F8B80310BD01F07F0495
:10159C00C4EBC404A30038330344E0E70220F4E7AF
:1015AC000F49D1F8883043F47003C1F888300D4BE3
:1015BC001A6842F001021A60002098601A6822F042
:1015CC00847222F480321A60074A5A601A6822F434
:1015DC0080221A60D8604FF000638B60704700BFA8
:1015EC0000ED00E0003802401030002430B40468F4
:1015FC00606A29B10D46A36A00EB134000230CE08E
:10160C0040EA0240A06212E003F1400104EB8101C8
:10161C00496800EB11400133DBB2691E8B42F3DBEE
:10162C0040EA024005F13F0104EB810148600020D3
:10163C0030BC7047036859620020704784B010B505
:10164C00044603A880E80E00089B012B20D1A36B55
:10165C0023F48033A363E36823F4840323F040036F
:10166C00E360E36823F44013E3600F9B012B0AD083
:10167C00204600F0AFFC069B012B14D00020BDE8E7
:10168C00104004B07047E36843F48013E360EFE765
:10169C00E36843F04003E360204600F09BFC4FF40A
:1016AC008033A363E7E7A36843F00603A360A36852
:1016BC0043F02003A360E1E7836843F001038360F8
:1016CC0000207047836823F001038360002070477B
:1016DC0008B5C36823F0C043C360012909D019B908
:1016EC00C36843F08043C360322000F0E7FC002065
:1016FC0008BDC36843F00053C360F5E784B0F8B588
:10170C00044607A880E80E00119FBFB9A36B43F4F1
:10171C000013A36325460023C4F8003E04F50066BD
:10172C00D4F80038C4F800380C9B012B10D1099B5D
:10173C004BB90021204600F0AFF80DE0A36B43F449
:10174C000023A363E6E70121204600F0A5F803E09F
:10175C000321204600F0A0F81021204600F076F876
:10176C00204600F087F80023336173614FF0FF329D
:10177C00B261F36108E04FF09040C2F8000900221A
:10178C000A61FF228A600133079999420BD905EB54
:10179C00431202F51061D2F800090028EBDB00209F
:1017AC00C2F80009EBE7002308E04FF0904CC2F8B8
:1017BC0000CB00220261FF228260013399420DD9D5
:1017CC0005EB431202F53060D2F800CBBCF1000FF0
:1017DC00EBDB4FF0000CC2F800CBEAE7336923F4E3
:1017EC00807333610A9B012B1AD00022A2616FF027
:1017FC00804262611BB9A36943F01003A361A26923
:10180C00104B1343A3610D9B1BB1A36943F0080359
:10181C00A361012F0ED00020BDE8F84004B0704742
:10182C00094A3263326B42F4803242F00302326373
:10183C00326BDAE7A36943F0804343F00403A361FE
:10184C00E9E700BF00383C8000018000890141F0CD
:10185C002001016100230133054A934205D8026936
:10186C0012F0200FF7D1002070470320704700BF03
:10187C00400D03001023036100230133054A9342FA
:10188C0005D8026912F0100FF7D100207047032021
:10189C00704700BF400D0300D0F800381943C0F862
:1018AC00001800207047D0F8083800F5006013F0DD
:1018BC00060F10D0836803F00603022B0DD083684B
:1018CC0003F00603062B0AD0836803F00603042BEF
:1018DC0007D000207047002070470320704703207A
:1018EC0070470220704730B44B78012B22D0D0F8CF
:1018FC001C380D780122AA4043EA0243C0F81C3878
:10190C000B7800EB4310D0F8003B13F4004F0ED1D2
:10191C00D0F8003B8A68C2F30A02C97842EA8142D5
:10192C00134343F0805343F40043C0F8003B0020C2
:10193C0030BC7047D0F81C280D78AB409BB21343D9
:10194C00C0F81C380C7800EB4410D0F8003913F4B4
:10195C00004FECD1D0F800398A68C2F30A02C9787A
:10196C0042EA814242EA8452134343F0805343F4E7
:10197C000043C0F80039DAE770B582B04B78012B20
:10198C003ED00B7800EB4313D3F8104BE40CE4047B
:10199C00C3F8104B0B7800EB4313D3F8104B24F027
:1019AC00FF5424F4C014C3F8104B4B69002B40F0C7
:1019BC00D4800B7800EB4313D3F8104B8D68C5F330
:1019CC0012052C43C3F8104B0B7800EB4313D3F8E0
:1019DC00104B44F40024C3F8104B012A00F0DC80B7
:1019EC00CB78012B00F0DF800B7800EB4310D0F8A4
:1019FC00003B43F00443C0F8003B002002B070BD34
:101A0C004B696BBB0B7800EB4313D3F8104924F0F4
:101A1C00FF5424F4C014C3F810490B7800EB4313A3
:101A2C00D3F8104944F40024C3F810490B7800EBA8
:101A3C004313D3F81049E40CE404C3F81049012A09
:101A4C0054D0CB78012B57D04B69002B54D0D0F805
:101A5C0034380E780124B4402343C0F834384BE0BA
:101A6C000B7800EB4313D3F81049E40CE404C3F8EF
:101A7C0010490B7800EB4313D3F8104924F0FF54B2
:101A8C0024F4C014C3F810490C7800EB4414D4F8B7
:101A9C0010594B698E683344013BB3FBF6F34E4E41
:101AAC0006EAC3432B43C4F810390B7800EB4313FD
:101ABC00D3F810494D69C5F312052C43C3F81049EE
:101ACC00CB78012BBBD10B7800EB4313D3F8104927
:101ADC0024F0C044C3F810490B7800EB4313D3F83F
:101AEC00104944F00054C3F81049A8E70B7800EBF8
:101AFC0043130C69C3F81449CB78012B14D00B7821
:101B0C0000EB4313D3F8004944F00444C3F80049F4
:101B1C00CB78012B7FF471AF14468B8A0A78C96895
:101B2C00009400F00BF968E7D0F8083813F4807FC4
:101B3C0009D10B7800EB4313D3F8004944F000545F
:101B4C00C3F80049DBE70B7800EB4313D3F80049EB
:101B5C0044F08054C3F80049D1E78C682344013B1E
:101B6C00B3FBF4F30C7800EB4414D4F8105B1A4E6E
:101B7C0006EAC3463543C4F8105B0C7800EB4414FA
:101B8C00D4F8106B8D689BB205FB03F5C5F31205F9
:101B9C003543C4F8105B20E7CA680B7800EB43139D
:101BAC00C3F8142B1CE7D0F8083813F4807F09D144
:101BBC000B7800EB4313D3F8002B42F00052C3F820
:101BCC00002B11E70B7800EB4313D3F8002B42F0FA
:101BDC008052C3F8002B07E70000F81F30B44B7895
:101BEC00012B39D00B7800EB4313D3F8104BE40CDA
:101BFC00E404C3F8104B0B7800EB4313D3F8104BF1
:101C0C0024F0FF5424F4C014C3F8104B4B690BB1EF
:101C1C008B684B610B7800EB4313D3F8104B44F4F7
:101C2C000024C3F8104B0B7800EB4313D3F8104B84
:101C3C008D68C5F312052C43C3F8104B012A76D0DE
:101C4C000B7800EB4310D0F8003B43F00443C0F892
:101C5C00003B002030BC70474B699BBB0B7800EB02
:101C6C004313D3F8104924F0FF5424F4C014C3F8E0
:101C7C0010490B7800EB4313D3F8104944F40024BB
:101C8C00C3F810490B7800EB4313D3F81049E40C5C
:101C9C00E404C3F810490B7800EB4313D3F8004964
:101CAC0044F00444C3F80049012A39D04B69002B95
:101CBC00CFD0D0F83438097801228A401343C0F8C9
:101CCC003438C6E70B7800EB4313D3F81049E40C17
:101CDC00E404C3F810490B7800EB4313D3F8104914
:101CEC0024F0FF5424F4C014C3F810494C698B68D9
:101CFC009C4200D94B610B7800EB4313D3F810498D
:101D0C0044F40024C3F810490B7800EB4313D3F8C8
:101D1C0010494D69C5F312052C43C3F81049BAE7B5
:101D2C000B7800EB43100B69C0F8143991E7CA68C3
:101D3C000B7800EB4313C3F8142B81E770B49DF8B8
:101D4C000C4064B903339D0807E000EB023303F544
:101D5C00805351F8046B1E600134AC42F5D3002063
:101D6C0070BC704703329208002393420CD210B41B
:101D7C0000F58054246841F8044B01339342F7D3A7
:101D8C0008465DF8044B7047084670474B78012BAA
:101D9C0017D00B7800EB4313D3F8002B002A05DB8C
:101DAC00D3F8002B22F08042C3F8002B0B7800EB09
:101DBC004310D0F8003B43F40013C0F8003B002064
:101DCC0070470B7800EB4313D3F80029002A05DB8E
:101DDC00D3F8002922F08042C3F800290B7800EBDD
:101DEC004310D0F8003943F40013C0F80039E6E78B
:101DFC004B78012B0FD00B7800EB4313D3F8002B4F
:101E0C0022F40012C3F8002BCB78023BDBB2012B7F
:101E1C0019D9002070470B7800EB4313D3F8002935
:101E2C0022F40012C3F80029CB78023BDBB2012B61
:101E3C00EFD80B7800EB4310D0F8003943F0805307
:101E4C00C0F80039E5E70B7800EB4310D0F8003B05
:101E5C0043F08053C0F8003BDBE738B50446002262
:101E6C0007E004EB4213FF21C3F80819C3F8081B61
:101E7C0001320E2AF5D94FF0FF32C4F8182800258C
:101E8C00C4F81058C4F81458C4F81C582046FFF76E
:101E9C00F1FC10212046FFF7D9FC284638BDD0F8BC
:101EAC00003823F4FE63C0F80038D0F8003809017C
:101EBC0001F4FE610B43C0F800380020704708B5F0
:101ECC00D0F8043823F00203C0F80438032000F0E3
:101EDC00F5F8002008BD08B5D0F8043843F002032B
:101EEC00C0F80438032000F0E9F8002008BD42696E
:101EFC00806910407047D0F8183800F50060C06950
:101F0C001840000C7047D0F8183800F50060C06914
:101F1C00184080B2704700EB4111D1F8082B00F546
:101F2C00006040691040704710B4D0F81048D0F8E9
:101F3C003438CB40DB01DBB2234300EB411000F51E
:101F4C001060806818405DF8044B7047406900F0E1
:101F5C0001007047D0F8003923F4FF6323F0070326
:101F6C00C0F8003900F500639A6802F00602042AF2
:101F7C0005D05A6842F480725A6000207047D0F83D
:101F8C00002942F00302C0F80029F2E710B4002443
:101F9C00C0F8104BD0F8104B44F40024C0F8104B90
:101FAC00D0F8104B44F01804C0F8104BD0F8104B7C
:101FBC0044F0C044C0F8104B012903D000205DF858
:101FCC00044B7047C0F8142B4FF08023C0F8003B33
:101FDC00F4E70000002301330C4A934211D8026944
:101FEC00002AF8DA036943F001030361002301338B
:101FFC00064A934207D8026912F0010FF7D100206C
:10200C007047032070470320704700BF400D03004A
:10201C007047000010B5094B4FF0FF321A620024D4
:10202C001C625A625C621A611C615A615C619A6141
:10203C009C61FFF7EDFF204610BD00BF0038024049
:10204C0010B50446074B1868074BA3FB00308009FA
:10205C0000F088FD002221464FF0FF3000F042FDD9
:10206C00002010BD34000020D34D621008B50B4B7E
:10207C001A6842F400721A601A6842F480621A609C
:10208C001A6842F480721A60032000F019FD0020D7
:10209C00FFF7D6FFFEF724FA002008BD003C0240F3
:1020AC00024A136801331360704700BF64040020B8
:1020BC00014B1868704700BF6404002030B583B032
:1020CC000190FFF7F5FF0546019CB4F1FF3F00D0EE
:1020DC000134FFF7EDFF401BA042FAD303B030BD33
:1020EC0010B513460222C0F8F4218361C3610A467D
:1020FC00002101F0ABFF002010BD08B513460A46C5
:10210C00002101F0A3FF002008BD10B513460322E7
:10211C00C0F8F421C0F80831C0F80C310A4600218F
:10212C0001F0A2FF002010BD08B513460A4600219D
:10213C0001F09AFF002008BD08B50423C0F8F43163
:10214C0000231A46194601F081FF002008BD08B58E
:10215C000523C0F8F43100231A46194601F084FF18
:10216C00002008BD1B23038000487047740000202A
:10217C0000207047002070470020704700207047F7
:10218C0000207047002070470A23038000487047E6
:10219C0090000020D0F8183293F800240A2A11D0AD
:1021AC000A2183F800140E2283F80124002283F8FC
:1021BC00022483F8032483F8042483F8051483F899
:1021CC0006247047022183F80014002283F80124AE
:1021DC0083F8022483F8032483F8042483F8051479
:1021EC0083F806247047D0F8183293F800148A1E2E
:1021FC00D2B2012A05D9052903D0062901D0092913
:10220C0013D1022183F80014002283F8012483F8EF
:10221C00022483F8032483F8042483F8051483F838
:10222C000624C3F80824C3F80C247047062909D8DF
:10223C0010B5D0F81C32044C2146186800F01FFF72
:10224C00204610BD0020704738010020D0F818320D
:10225C00002283F80724194A127D12F0040F0CD0C7
:10226C00062183F80014002283F8022483F8032447
:10227C0083F8042483F80514704710B5044608212C
:10228C0083F80014002283F8022483F8032483F8D3
:10229C00042483F8051400F0CDFAD4F81C329B68A2
:1022AC009847BFF34F8F0649CA6802F4E062054BAA
:1022BC001343CB60BFF34F8F00BFFDE774000020CA
:1022CC0000ED00E00400FA0530B583B0D0F81842F8
:1022DC0094F80034042B04D0072B68D0002003B0F2
:1022EC0030BDD4F80834002B40D123781BB9D4F876
:1022FC000C24012A4AD0212B19D0412B28D1D4F8F7
:10230C000C34052B24D16378A27803EB0223E278FA
:10231C0003EB0243227903EB0263C4F81034D0F8C8
:10232C001C22D2681846904780B30220D7E7D4F815
:10233C000C24052AE1D16378A27803EB0223E2781E
:10234C0003EB0243227903EB0263C4F810341DE063
:10235C000023C4F80C34C4F808348DF80030012381
:10236C00ADF80630694600F056FC0FE0012B0DD994
:10237C0012491944D4F81054D0F81C321B69D4F803
:10238C000C2405EB812120469847A0B90020C4F805
:10239C000C04C4F80804032384F8003484F8020401
:1023AC0084F8030484F8040484F8053497E7FFF7F1
:1023BC004DFF002093E7022091E700BFFEFF3F0096
:1023CC0070B5D0F81842CB88002B60D0054694F835
:1023DC000034022B01D0092B51D14B88C4F808349E
:1023EC00CA88C4F80C24D3B9032A16D8092284F855
:1023FC000024002384F8023484F8033484F8043471
:10240C0084F805242370212363704123A3700322D5
:10241C0021462846FFF764FE45E00222E7E7012B40
:10242C001DD9092084F80004002184F8021484F8D2
:10243C00031484F8041484F805041B481844D4F8D5
:10244C001064D5F81C325B69214606EB8020984756
:10245C00B4F80C2401462846FFF742FE23E00F2275
:10246C0084F80024002384F8023484F8033484F8BC
:10247C00043484F80524284600F0CDFB13E0002337
:10248C00C4F80C34C4F8083400F0C5FB0BE002228D
:10249C0084F80024002384F8023484F8033484F88C
:1024AC00043484F8052470BDFEFF3F0038B50546A2
:1024BC00D0F8184294F80034032B08D0062B3CD0EB
:1024CC00062204F201412846FFF70AFE38BDD4F873
:1024DC000C342BB3042284F80024002384F8023437
:1024EC0084F8033484F8043484F80524D4F80834CC
:1024FC004BB1D5F81C329B6904F201420121D4F88E
:10250C0010049847DCE72378412BF2D1D0F81C3229
:10251C009B6904F201420021D4F810049847CFE7DC
:10252C00052284F80024002384F8023484F8033450
:10253C0084F8043484F80524C2E794F80734012B9A
:10254C0013D0002BBCD1104B1B7D13F0040FB7D054
:10255C00022284F80024002384F8023484F8033423
:10256C0084F8043484F80524AAE7072384F800349B
:10257C00012284F80224002284F8032484F8042421
:10258C0084F805349CE700BF7400002008B5D0F82F
:10259C001812012201F58061FFF7A2FD08BD08B5F4
:1025AC00D0F81832CA88BAB193F80024022A01D0A4
:1025BC00052A0ED14A88C3F80824CA88C3F80C240B
:1025CC00032183F8001483F805141946FFF79DFDC9
:1025DC001AE000F020FB17E093F80024052A04D041
:1025EC00022A02D000F017FB0EE0012283F8072428
:1025FC00062183F80014002283F8022483F80324B4
:10260C0083F8042483F8051408BD000010B50446B3
:10261C00D0F8183293F80004821ED2B2012A05D9E0
:10262C00052803D0062801D0092813D1022083F8ED
:10263C000004002283F8012483F8022483F8032485
:10264C0083F8042483F8050483F80624C3F80824CB
:10265C00C3F80C24074B5B7D13F0100F03D1488893
:10266C00FFF72CFD10BD204600F0E4F8204600F0EA
:10267C00DCF8F7E77400002010B5D0F818420B789E
:10268C0013F060032AD0202B54D14B78062B21D881
:10269C00DFE803F01C04080C10141800FFF77FFF90
:1026AC00002048E0FFF78CFE002044E0FFF7FEFE20
:1026BC00002040E0FFF76EFD00203CE0FFF766FFD6
:1026CC00002038E0FFF78FFD002034E0FFF79EFF7D
:1026DC00002030E000F09FFA02202CE04B780A2B0F
:1026EC0017D00B2B1CD0062B03D000F094FA022031
:1026FC0021E04B881B0A212B05D000221146FFF745
:10270C00EFFC002017E0CA88092A28BF09220A49D1
:10271C00F5E7012204F21441FFF7E2FC00200AE085
:10272C008B781BB9C4F81434002004E000F073FA61
:10273C00022000E0002010BD86000020D0F81832E6
:10274C000022C3F80824C3F80C24022183F80014D7
:10275C0083F8012483F80514D0F8183273B110B53E
:10276C000446D0F81C329B689847D4F8180201F044
:10277C00DFFC0023C4F81832002010BD0020704785
:10278C0010B504464FF4836001F0CAFCC4F818027B
:10279C0018B30023C0F81434114AC0F81024C0F840
:1027AC000834C0F80C3480F80734022280F8002476
:1027BC0080F8013480F8023480F8033480F8043453
:1027CC0080F8052480F80634D4F81C325B689847EE
:1027DC0008B9002010BD0220FCE70220FAE700BF78
:1027EC0000C0000809B1C0F81C120020704798B155
:1027FC0008B50346D0F8140210B10020C3F8140237
:10280C0009B1C3F810121846012380F8FC3102708C
:10281C0001F070FB002008BD0220704719B1C0F810
:10282C001412002070470220704708B501F0A0FB7D
:10283C00002008BD10B50446D0F814325B6801794D
:10284C009847204601F0A2FB002010BD08B5D0F837
:10285C00143233B11B68984708B9002008BD022018
:10286C00FCE70220FAE708B5D0F814325B68984709
:10287C00002008BD38B5044600F50275284600F066
:10288C00B6F90123C4F8F431B4F80E32C4F8F831B7
:10289C0094F8081201F01F03012B0ED03BB1022B50
:1028AC0010D001F08001204601F08FFB03E0294697
:1028BC00204600F018FB002038BD2946204600F0C9
:1028CC0036FBF8E72946204600F04DFBF3E710B540
:1028DC00044621BB1346D0F8F421032A01D0002072
:1028EC0010BDD0F80C11D0F8102191420CD8D0F8B2
:1028FC0014321B6923B190F8FC21032A00D19847AC
:10290C002046FFF719FCEAE7891AC0F80C118A4235
:10291C0028BF0A4692B21946FFF706FCDFE70A46C3
:10292C00D0F814329B69002BD9D090F8FC110329F4
:10293C00D5D111469847D2E710B50446002946D1A7
:10294C001346D0F8F421022A05D094F80032012B5A
:10295C0039D0002010BDC169026A914219D8816931
:10296C00B1FBF2F302FB13132BB98A4203D8D0F854
:10297C00F83199421AD3D4F81432DB682BB194F89D
:10298C00FC21032A01D1204698472046FFF7DFFBA4
:10299C00DBE78A1AC26192B21946FFF7AEFB00233D
:1029AC001A461946204601F05FFBCEE7002211467D
:1029BC00FFF7A3FB0021C4F8F8110B460A4620468A
:1029CC0001F052FBC1E7002384F80032C1E70A464C
:1029DC00D0F814325B69002BBBD090F8FC110329A2
:1029EC00B7D111469847B4E738B5044640230022C6
:1029FC00114601F0D9FA4025C4F810512B4600229B
:102A0C008021204601F0D0FA2562012384F8FC31A4
:102A1C00D4F818322BB1D4F814325B6821792046E3
:102A2C009847002038BD01740020704790F8FC31A5
:102A3C0080F8FD31042380F8FC310020704790F8B9
:102A4C00FD3180F8FC310020704708B590F8FC315E
:102A5C00032B01D0002008BDD0F81432DB69002B09
:102A6C00F8D09847F6E70020704700207047002008
:102A7C00704708B5012280F8FC21D0F81422526866
:102A8C0001799047002008BD10B5094C0122094975
:102A9C002046FFF7ACFE08492046FFF7BFFE07496A
:102AAC002046FFF79FFE2046FFF7BFFE10BD00BF7C
:102ABC006804002000000020380000209C0000204A
:102ACC00074AD36823F4E0631B041B0C000200F4D8
:102ADC00E060184340F0BF6040F40030D0607047B5
:102AEC0000ED00E030B4174BDB68C3F30223C3F1F5
:102AFC000704042C28BF04241D1D062D18D9033BE4
:102B0C004FF0FF3505FA04F421EA0401994005FA67
:102B1C0003F322EA0303194300280BDB0901C9B2B2
:102B2C0000F1604000F5614080F8001330BC704744
:102B3C000023E5E700F00F000901C9B2024B19545C
:102B4C00F4E700BF00ED00E014ED00E000F01F0220
:102B5C00400901239340024A42F82030704700BFDD
:102B6C0000E100E00138B0F1807F0AD2064B5860DA
:102B7C00064AF02182F823100020986007221A6080
:102B8C0070470120704700BF10E000E000ED00E04E
:102B9C00042805D0054A136823F00403136070471A
:102BAC00024A136843F004031360704710E000E01E
:102BBC00704708B5FFF7FCFF08BD002302E00133A6
:102BCC00DBB201300278002AF9D1184670474B88E5
:102BDC00012B0BD110B50446C0F80432D0F81432D6
:102BEC009B6898472046FFF7A7FA10BD70470B78F3
:102BFC0003704B7843708B78CA7803EB02234380C5
:102C0C000B794A7903EB022383808B79CA7903EB26
:102C1C000223C380704710B50446802101F0D5F91A
:102C2C000021204601F0D1F910BD30B583B0044627
:102C3C000D4649880B0A013B062B00F28480DFE825
:102C4C0003F00413278282667300D0F810321B68DD
:102C5C000DF10601007C9847BDF8062012B1EB88F7
:102C6C00002B74D103B030BD037C43B9D0F81432BF
:102C7C009B6A0DF10600984702234370ECE7D0F8ED
:102C8C001432DB6A0DF10600984702234370E3E728
:102C9C00C9B2052934D8DFE801F0030B131B232B31
:102CAC00D0F810325B680DF10601007C9847D3E731
:102CBC00D0F810329B680DF10601007C9847CBE7E9
:102CCC00D0F81032DB680DF10601007C9847C3E7A1
:102CDC00D0F810321B690DF10601007C9847BBE758
:102CEC00D0F810325B690DF10601007C9847B3E710
:102CFC00D0F810329B690DF10601007C9847ABE7C8
:102D0C00D0F814329B6B0DF106029847A4E7037CB4
:102D1C0033B9D0F814325B6B0DF1060098479BE782
:102D2C002946FFF778FF9DE7037C43B9D0F81432AE
:102D3C001B6B0DF106009847072343708CE729465F
:102D4C00FFF769FF8EE72946FFF765FF8AE79A428E
:102D5C0028BF1A46ADF8062001462046FFF7C0F9F9
:102D6C0080E738B504468B88E3B9CB88D3B98D7826
:102D7C0005F07F0590F8FC31032B0CD080F8FE5148
:102D8C00294601F055F92046FFF7D6F935B1022353
:102D9C0084F8FC3109E0FFF73EFF06E0012384F8DC
:102DAC00FC3102E02046FFF736FF38BD38B504464B
:102DBC000D468978254B1970012909D890F8FC31FA
:102DCC00022B09D0032B1CD02946FFF724FF02E06D
:102DDC002946FFF720FF38BD81B14160032380F8FD
:102DEC00FC31FFF733FD022803D02046FFF7A4F98E
:102DFC00F1E729462046FFF70EFFECE7FFF79CF9B9
:102E0C00E9E789B1436899421DD0D9B2FFF72BFD90
:102E1C000E4B197861602046FFF718FD02280DD083
:102E2C002046FFF789F9D6E7022380F8FC31416090
:102E3C00FFF719FD2046FFF77FF9CCE7294620461E
:102E4C00FFF7E9FEC7E7FFF777F9C4E73702002081
:102E5C0008B5CB88012B08D190F8FC31022B07D098
:102E6C00032B0DD0FFF7D7FE01E0FFF7D4FE08BD12
:102E7C000146002341F8083F0122FFF731F9F6E73C
:102E8C000122011DFFF72CF9F1E708B590F8FC3190
:102E9C00023B012B0CD80123C360D0F804320BB1D8
:102EAC000323C360022200F10C01FFF719F908BDDE
:102EBC00FFF7B1FEFBE710B5044690F8FC31023B7E
:102ECC00012B0DD84B88012B09D10023C0F80432FB
:102EDC00D0F814329B6898472046FFF72DF910BDA7
:102EEC00FFF799FEFBE708B54B78092B1CD8DFE8F8
:102EFC0003F012181B151B09051B0F0CFFF795FE91
:102F0C00002008BDFFF72DFFFAE7FFF74FFFF7E7AB
:102F1C00FFF79EFFF4E7FFF7B8FFF1E7FFF757FE67
:102F2C00EEE7FFF7C8FFEBE7FFF775FEE8E738B50C
:102F3C0004460D4690F8FC31032B11D10B79012B73
:102F4C000BD8D0F814329B689847EB880BB1002053
:102F5C0038BD2046FFF7F0F8F9E7FFF75CFEF6E71F
:102F6C00FFF759FEF3E738B505460C468A880B780F
:102F7C0003F06003202B05D1D0F814329B689847DE
:102F8C00002038BDD1B26378012B25D0002B47D05F
:102F9C00032BF5D190F8FC31022B05D0032B0AD072
:102FAC002146FFF738FEEBE70029E9D08029E7D06E
:102FBC0001F00BF8E4E7638823B919B1802901D03B
:102FCC0001F003F8D5F814329B682146284698473F
:102FDC002846FFF7B1F8D3E790F8FC31022B05D067
:102FEC00032B0AD02146FFF716FEC9E70029C7D0EC
:102FFC008029C5D000F0E9FFC2E76388002BBFD160
:10300C0011F07F0F03D12846FFF796F8B8E700F0D0
:10301C00EAFFD5F814329B68214628469847F2E718
:10302C0090F8FC31022B05D0032B09D02146FFF779
:10303C00F2FDA5E711F07F0FA2D000F0C6FF9FE7CD
:10304C0012F0800F11D101F07F04103400EB041446
:10305C000434284600F0D5FF70B10123236002220E
:10306C0021462846FFF73CF88AE701F07F0401343B
:10307C0000EB04140434ECE700232360EFE7D0B139
:10308C0070B50D4616460446FFF797FD013040001B
:10309C0080B23080287003236B70022307E0013468
:1030AC005A1CD2B2E9540233DBB20021A954217864
:1030BC000029F4D170BD70472DE9F04F8FB000247A
:1030CC000194A94B1A6B42F004021A631A6B02F0BA
:1030DC0004020192019A02941A6B42F020021A63C4
:1030EC001A6B02F020020292029A03941A6B42F0BD
:1030FC0080021A631A6B02F080020392039A049402
:10310C001A6B42F001021A631A6B02F0010204926C
:10311C00049A05941A6B42F002021A631A6B02F0BD
:10312C0002020592059A06941A6B42F040021A6349
:10313C001A6B02F040020692069A07941A6B42F040
:10314C0010021A631A6B02F010020792079A089485
:10315C001A6B42F008021A631B6B03F00803089306
:10316C00089B224616218148FDF745FD2246802109
:10317C007F48FDF740FD22464FF440517D48FDF756
:10318C003AFD22464FF4C0417B48FDF734FD4FF623
:10319C003F03099302250A950B9403270C974FF0D4
:1031AC000C08CDF83480754E09A93046FDF72CFC7F
:1031BC004FF4607309930A950B940C9405230D93AB
:1031CC0009A93046FDF720FC4FF4806309930A955A
:1031DC000B940C944FF00E09CDF8349009A930469D
:1031EC00FDF712FC012609960A950B940C97CDF865
:1031FC00348009A95D48FDF707FC162309930A964C
:10320C000B940C9409A95948FDF7FEFB09960A94F6
:10321C000B9409A95648FDF7F7FB48F206030993EE
:10322C00DFF864A1CDF828A00B9409A95048FDF74C
:10323C00EBFB41F6580309930A950B940C94CDF8CB
:10324C00349009A94A48FDF7DFFB802309930A96BD
:10325C000B940C9409A94648FDF7D6FB202309933F
:10326C00CDF828A00B9409A94048FDF7CDFB099790
:10327C000A950B940C9409230D9309A94048FDF76A
:10328C00C3FB4FF0040ACDF824A00A940B9409A9AF
:10329C003B48FDF7B9FB48F2331309930A950B949D
:1032AC000C97CDF8348009A93348FDF7ADFB4FF6E8
:1032BC00837309930A950B940C97CDF8348009A964
:1032CC003048FDF7A1FB4FF4706309930A950B94FA
:1032DC000C94CDF8349009A92948FDF795FB4CF2D4
:1032EC00037309930A950B940C97CDF8348009A9B4
:1032FC002048FDF789FB4FF4006309930A940B9463
:10330C0009A91C48FDF780FB4FF4405309930A961A
:10331C000B940C9409A91748FDF776FB4FF40C633A
:10332C0009930A950B940C94CDF8349009A9124882
:10333C00FDF76AFB4FF4986309930A950B940C9470
:10334C00CDF8349009A90948FDF75EFB4FF40073E2
:10335C0009934FF0120BCDF828B00B960C94CDF8C6
:10336C0034A009A912E000BF003802400008024056
:10337C0000000240000C0240001802400014024001
:10338C000004024000100240000012101F48FDF71C
:10339C003BFB4FF480730993CDF828B00B960C943B
:1033AC00CDF834A009A91A48FDF72EFB4823099340
:1033BC000A950B940C94CDF8349009A91548FDF797
:1033CC0023FB4FF4A05309930A950B940C940923F7
:1033DC000D9309A91048FDF717FB4FF4C04309934F
:1033EC000A960B940C9409A90B48FDF70DFB60236E
:1033FC0009930A950B940C97CDF8348009A90748CA
:10340C00FDF702FB0FB0BDE8F08F00BF00080240D3
:10341C0000000240000C0240001802400004024070
:10342C00FEE7000000B595B0002101912B4B1A6C02
:10343C0042F080521A641B6C03F080530193019B81
:10344C000291274B1A6842F440421A601B6803F43D
:10345C0040430293029B012308934FF4803309935A
:10346C0002230E934FF480020F9204221092A82292
:10347C00119212930723139308A800F0ADF920BB07
:10348C000F23039302230493002305934FF4A053BB
:10349C0006934FF480530793052103A800F0C4FB57
:1034AC00B8B900F06DFC0F4BA3FB00308009FFF79F
:1034BC0059FB0420FFF76CFB002211464FF0FF3044
:1034CC00FFF710FB15B05DF804FBAB210648FFF7C6
:1034DC00A7FFB8210448FFF7A3FF00BF0038024044
:1034EC0000700040D34D62106443000880B500AFFB
:1034FC00FEF7BCFDFFF796FFFFF7DEFD0121164836
:10350C00FDF772FB012802D0FFF7BEFAFEE701229D
:10351C004FF400511148FDF76EFB114B1A68114B1B
:10352C001340B3F1005FEFD101224FF480410B48FF
:10353C00FDF761FB0C4B1B680C4A13600C4C2360B1
:10354C00FEF768FD064B0B4A93601B6883F30888F3
:10355C0023689847D8E700BF0000024000180240DB
:10356C0000C000080000F82F04C000088C060020E2
:10357C009006002000ED00E000F17843B3F5804F99
:10358C00C0F09A80A3F58043B3F5804FC0F09680CD
:10359C0000F17843A3F50043B3F5804FC0F0908061
:1035AC0000F17843A3F54043B3F5804FC0F08A8017
:1035BC0000F1774303F57F03B3F5803FC0F08480BF
:1035CC0000F1774303F57E03B3F5003F7ED300F1A2
:1035DC00774303F57C03B3F5003F79D300F17743D0
:1035EC0003F57A03B3F5003F74D300F1774303F589
:1035FC007803B3F5003F6FD300F1774303F57603FF
:10360C00B3F5003F6AD300F1774303F57403B3F5C8
:10361C00003F65D300F1774303F57203B3F5003F28
:10362C0060D3A0F10163B3F5804F5DD3A3F5804364
:10363C00B3F5804F5AD3A0F10163A3F50043B3F562
:10364C00804F55D3A0F10163A3F54043B3F5804FF0
:10365C0050D300F1774303F56F03B3F5803F4BD3A1
:10366C0000F1774303F56E03B3F5003F46D300F149
:10367C00774303F56C03B3F5003F41D300F1774377
:10368C0003F56A03B3F5003F3CD300F1774303F530
:10369C006803B3F5003F37D300F1774303F56603B6
:1036AC00B3F5003F32D300F1774000F56400B0F57C
:1036BC00003F2DD216207047002070470120704724
:1036CC000220704703207047042070470520704784
:1036DC000620704707207047082070470920704764
:1036EC000A2070470B2070470C2070470D20704744
:1036FC000E2070470F207047102070471120704724
:10370C001220704713207047142070471520704703
:10371C0017207047002393420AD210B40478CC547B
:10372C00013301309342F9D308465DF8044B7047DE
:10373C000846704738B50D461446FFF71DFF084B79
:10374C0033F81030012D05D063700023A370E370A3
:10375C00002038BD63700023A370E370F8E700BF4E
:10376C0070430008F8B506460D4617460024BC42C7
:10377C000CD23259002329190220FCF7D3FF38B997
:10378C0032592B599A4205D10434F0E70020F8BD88
:10379C000220FCE70220FAE710B586B0002405945D
:1037AC00FFF7EAFE00940223049302900123039393
:1037BC0005A96846FDF7DCF810B9002006B010BD6D
:1037CC000220FBE708B5FCF771FF002008BD08B527
:1037DC00FCF754FF002008BD002800F0AB8130B589
:1037EC0083B00446036813F0010F3BD0A74B9B68D2
:1037FC0003F00C03042B2CD0A44B9B6803F00C039C
:10380C00082B21D06368B3F5803F4FD0B3F5A02FC0
:10381C0052D09E4B1A6822F480321A601A6822F435
:10382C0080221A606368002B50D0FEF741FC0546DD
:10383C00964B1B6813F4003F14D1FEF739FC401B68
:10384C006428F5D903207AE1904B5B6813F4800F60
:10385C00D8D08E4B1B6813F4003F03D06368002B49
:10386C0000F06A81236813F0020F55D0874B9B68D8
:10387C0013F00C0F3ED0854B9B6803F00C03082B08
:10388C0033D0E368002B68D0814B01221A60FEF71D
:10389C000FFC05467D4B1B6813F0020F54D1FEF74D
:1038AC0007FC401B0228F5D9032048E1774A13682E
:1038BC0043F480331360B5E7744B1A6842F48022EA
:1038CC001A601A6842F480321A60ABE7FEF7F0FB1C
:1038DC0005466E4B1B6813F4003FC3D0FEF7E8FBA4
:1038EC00401B6428F5D9032029E1684B5B6813F46D
:1038FC00800FC6D1654B1B6813F0020F04D0E36830
:10390C00012B01D001201AE1604A136823F0F8035F
:10391C00216943EAC1031360236813F0080F40D0F8
:10392C00636963B35B4B01221A60FEF7C1FB05466A
:10393C00564B5B6F13F0020F33D1FEF7B9FB401BF4
:10394C000228F5D90320FAE0504A136823F0F80353
:10395C00216943EAC1031360DEE74D4B00221A6074
:10396C00FEF7A6FB0546494B1B6813F0020FD3D09C
:10397C00FEF79EFB401B0228F5D90320DFE0454BE8
:10398C0000221A60FEF794FB0546404B5B6F13F068
:10399C00020F06D0FEF78CFB401B0228F5D9032042
:1039AC00CDE0236813F0040F1FD1A369002B00F0A6
:1039BC00C580364A926802F00C02082A00F0C180D9
:1039CC00022B7FD0344B00221A60FEF771FB0446A9
:1039DC002E4B1B6813F0007F00F0AA80FEF768FBEB
:1039EC00001B0228F4D90320A9E000230193274BE4
:1039FC001A6C42F080521A641B6C03F080530193D2
:103A0C00019B264A136843F480731360FEF750FB46
:103A1C000546224B1B6813F4807F06D1FEF748FB4A
:103A2C00401B0228F5D9032089E0A368012B1DD087
:103A3C00052B21D0154B1A6F22F001021A671A6F51
:103A4C0022F004021A67A36853B3FEF731FB054654
:103A5C000E4B1B6F13F0020FA7D1FEF729FB401B77
:103A6C0041F288339842F3D9032068E0074A136F78
:103A7C0043F001031367E6E7044B1A6F42F00402AC
:103A8C001A671A6F42F001021A67DCE7003802402D
:103A9C0000004742800E47426000474200700040E1
:103AAC00FEF706FB0546284B1B6F13F0020F3FF485
:103ABC007CAFFEF7FDFA401B41F288339842F2D9F5
:103ACC0003203CE0214B00221A60FEF7F1FA054678
:103ADC001D4B1B6813F0007F06D0FEF7E9FA401B64
:103AEC000228F5D903202AE0E369226A1343626AAB
:103AFC0043EA8213A26A5208013A43EA0243E26A99
:103B0C0043EA0263104A5360104B01221A60FEF71D
:103B1C00CFFA04460C4B1B6813F0007F06D1FEF75E
:103B2C00C7FA001B0228F5D9032008E0002006E0A4
:103B3C00002004E001207047012000E0002003B0C9
:103B4C0030BD0120FBE700BF003802406000474257
:103B5C00324B9B6803F00C03042B5CD0082B01D078
:103B6C002F4870472DE9F04B2C4B5A6802F03F025E
:103B7C005B6813F4800F2BD0284B5B68C3F388135E
:103B8C001E4600275C010025E41A65EB0705A90118
:103B9C0041EA9461A001001B61EB0501CB0043EAF3
:103BAC005073C400A01943EB07014B0243EAD053F6
:103BBC004402204619460023FCF712FB174B5B68A6
:103BCC00C3F3014301335B00B0FBF3F0BDE8F08BB2
:103BDC00124B5B68C3F388131E4600275C0100255B
:103BEC00E41A65EB0705A90141EA9461A001001BE9
:103BFC0061EB0501CB0043EA5073C400A01943EB01
:103C0C0007018B0243EA9053840220461946002395
:103C1C00FCF7E6FAD2E70348704700BF00380240D1
:103C2C000024F40000127A00002800F09D8070B58A
:103C3C0004464F4B1B6803F00F038B4209D2CBB2E7
:103C4C004B4A1370136803F00F038B4201D0012011
:103C5C0070BD236813F0020F17D013F0040F04D0BB
:103C6C00444A936843F4E0539360236813F0080FBD
:103C7C0004D0404A936843F4604393603D4A936890
:103C8C0023F0F003A068034393600D46236813F000
:103C9C00010F32D06368012B21D09A1E012A25D93D
:103CAC00344A126812F0020F60D032498A6822F04E
:103CBC00030213438B60FEF7FBF906462D4B9B6802
:103CCC0003F00C036268B3EB820F16D0FEF7F0F929
:103CDC00801B41F288339842F0D90320B8E7254A7B
:103CEC00126812F4003FE0D10120B1E7214A1268BA
:103CFC0012F0007FD9D10120AAE71D4B1B6803F0FD
:103D0C000F03AB4209D9EAB2194B1A701B6803F0C6
:103D1C000F03AB4201D001209AE7236813F0040F84
:103D2C0006D0144A936823F4E053E1680B43936084
:103D3C00236813F0080F07D00E4A936823F46043EE
:103D4C00216943EAC1039360FFF702FF094B9B68AB
:103D5C00C3F30313084AD35CD840084B1860002007
:103D6C00FEF76EF9002073E70120704701206FE722
:103D7C00003C02400038024054430008340000204C
:103D8C00014B1868704700BF3400002008B5FEF7DF
:103D9C0087F9FEF70EFF08BD08B50248FDF724F8B9
:103DAC0008BD00BF940600200268194B9A4200D04F
:103DBC00704730B587B04FF4504301930223029300
:103DCC000024039404940C230593124D01A9284656
:103DDC00FCF71AFE4FF4005301930294039401A9CB
:103DEC002846FCF711FE00940B4B1A6B42F0005264
:103DFC001A631B6B03F000530093009B2246214671
:103E0C004D20FEF76FFE4D20FEF7A0FE07B030BD33
:103E1C0000000440000402400038024008B500F5E0
:103E2C006F71D0F8EC03FEF725FD08BD08B5C1EBAA
:103E3C00C10293000344D3F80422D0F8EC03FEF73C
:103E4C0046FD08BD08B5C1EBC102930003445A6C92
:103E5C00D0F8EC03FEF770FD08BD08B5D0F8EC0304
:103E6C00FEF7F3FD08BD10B50446C3684BB1012144
:103E7C00D4F8EC03FEF7D7FDD4F8EC03FEF7B4FD51
:103E8C0010BD0021F4E7000010B50446D0F8EC0397
:103E9C00FEF7CCFD2268D2F8003E43F00103C2F8D5
:103EAC00003E236A23B1034A136943F006031361EE
:103EBC0010BD00BF00ED00E008B5D0F8EC03FEF734
:103ECC00BEFD08BD08B5D0F8EC03FEF7CEFD08BD6D
:103EDC0008B5D0F8EC03FEF7C6FD08BD08B5D0F860
:103EEC00EC03FEF7C4FD08BD08B5D0F8EC03FEF7F3
:103EFC00C0FD08BD0378012B01D00020704710B520
:103F0C0003461848C0F8EC33C3F82002164B036084
:103F1C00062343600222C260002303614361826175
:103F2C00C36103624362C36203634363FCF7BFFE76
:103F3C0090B90C4C4FF400712046FDF77BFB8022AE
:103F4C0000212046FDF752FB4FF4BA7201212046A6
:103F5C00FDF74CFB002010BD4FF49F710348FFF799
:103F6C005FFAE6E7940600200000044000440008D5
:103F7C0008B5D0F82002FCF70AFF18B1022803D0CC
:103F8C00022008BD0020FCE70120FAE708B5D0F8B4
:103F9C002002FCF711FF18B1022803D0022008BD43
:103FAC000020FCE70120FAE710B51C461346224618
:103FBC00D0F82002FDF70CFA18B1022803D0022029
:103FCC0010BD0020FCE70120FAE708B5D0F820026C
:103FDC00FDF788FA18B1022803D0022008BD002092
:103FEC00FCE70120FAE708B5D0F82002FDF7ADFA9E
:103FFC0018B1022803D0022008BD0020FCE70120E4
:10400C00FAE7D0F8203211F0800F08D101F07F01CF
:10401C00C1EBC1018A00134493F8FA01704701F017
:10402C007F01C1EBC1018A00134493F83A00704739
:10403C0008B5D0F82002FDF7B9F918B1022803D061
:10404C00022008BD0020FCE70120FAE708B5D0F8F3
:10405C002002FDF71EFA18B1022803D0022008BD79
:10406C000020FCE70120FAE708B5D0F82002FDF7A4
:10407C00E3F918B1022803D0022008BD0020FCE7A8
:10408C000120FAE7DFF834D0002103E00C4B5B5839
:10409C00435004310B480C4B42189A42F6D30B4A4E
:1040AC0002E0002342F8043B094B9A42F9D3FDF796
:1040BC0077FA00F011F8FFF719FA704700000320A7
:1040CC0020440008000000201C0100201C010020DE
:1040DC00880A0020FEE7000070B50D4E0D4CA41BA5
:1040EC00A4100025A54209D10B4E0C4C00F0F0F8A1
:1040FC00A41BA4100025A54205D170BD56F825308F
:10410C0098470135EEE756F8253098470135F2E728
:10411C001844000818440008184400081C440008FF
:10412C00024B0146186800F059B800BFB8000020D7
:10413C00024B0146186800F003B800BFB80000201D
:10414C0038B50546002945D051F8043C0C1F002B0E
:10415C00B8BFE41800F0ACF81F4A1368104633B926
:10416C00636014602846BDE8384000F0A2B8A34252
:10417C000CD921686218934204BF1A685B686360AB
:10418C0004BF521822600460ECE713465A680AB167
:10419C00A242FAD919685818A0420BD120680144E0
:1041AC00581882421960DDD1106852685A60014477
:1041BC001960D7E702D90C232B60D3E720682118AC
:1041CC008A4204BF11685268626004BF09182160FA
:1041DC005C60C7E738BD00BF3802002070B5CD1C4D
:1041EC0025F0030508350C2D38BF0C25002D06468F
:1041FC0001DBA94203D90C233360002070BD00F011
:10420C0057F8214A1468214691B9204C23681BB9F0
:10421C00304600F03DF820602946304600F038F872
:10422C00431C24D10C233360304600F042F8E4E701
:10423C000B685B1B18D40B2B0FD90B60CD50CC1813
:10424C00304600F036F804F10B00231D20F0070077
:10425C00C31AD3D05A42E250D0E78C424B6816BFF7
:10426C00636013600C46EBE70C464968CCE7C41C52
:10427C0024F00304A04205D0211A304600F008F8BF
:10428C000130CFD02560DBE7380200203C02002053
:10429C0038B5064C002305460846236000F00AF8A2
:1042AC00431C02D1236803B12B6038BD840A002063
:1042BC0070477047044A05491368002B08BF0B462A
:1042CC00184410601846704740020020880A0020ED
:1042DC00F8B500BFF8BC08BC9E467047F8B500BFE7
:0842EC00F8BC08BC9E467047B7
:1042F40044465520436F6E66696700004446552066
:10430400496E7465726661636500000053544D69BB
:1043140063726F656C656374726F6E6963730000BA
:1043240053544D333220446F776E4C6F6164204692
:1043340069726D77617265205570646174650000FF
:104344003030303030303030303031410000000017
:104354000000000000000000010203040607080931
:104364005372632F6D61696E2E630000F401F401D2
:10437400F401F4014C04D007D007D007D007D007CC
:10438400D007D007F401F401F401F4014C04D00780
:10439400D007D007D007D007D007D00740496E74A4
:1043A40065726E616C20466C6173682020202F302A
:1043B4007830383030303030302F30332A303136A6
:1043C4004B612C30312A3031364B672C30312A3056
:1043D40036344B672C30372A3132384B672C303423
:1043E4002A3031364B672C30312A3036344B672C27
:1043F40030372A3132384B67000000005372632F84
:0C440400757362645F636F6E662E630068
:084410000CBEFF7F010000005B
:04441800D1010008C6
:04441C00AD010008E6
:10442000B1070008BD070008ED070008C90700082C
:10443000090800082D0800085108000812010002B0
:1044400000000040830411DF0002010203010000AC
:10445000040309040024F4008D27000849270008FC
:1044600085260008D5220008812100087D2100084A
:104470009121000885210008892100088D2100086C
:1044800071210008712100087121000895210008A0
:104490003922000809021B00010102C03209040090
:1044A0000000FE01020609210BFF0000041A0100B2
:1044B0000A0600020000004001000000A0430008BE
:1044C000DB370008D1370008A5370008713700082E
:1044D0002137000841370008BC0000200000000020
:1044E00000000000000000000000000000000000CC
:1044F00000000000000000000000000000000000BC
:1045000000000000000000000000000000000000AB
:10451000000000000000000000000000000000009B
:10452000000000000000000000000000000000008B
:0C4530000000000000000000000000007F
:04000005080040911E
:00000001FF
